:020000040000FA
:10000000B0110020750100007D0100007F0100009B
:1000100000000000000000000000000000000000E0
:10002000000000000000000000000000810100004E
:10003000000000000000000083010000A90C000087
:100040008701000087010000870100008701000090
:100050008701000087010000870100008701000080
:100060008701000087010000870100008701000070
:10007000870100008701000041090000870100009E
:10008000870100005D090000870100008701000072
:100090008701000087010000870100008701000040
:1000A0008701000087010000870100008701000030
:1000B0008701000087010000870100008701000020
:1000C00000F002F800F047F80CA030C808382418F7
:1000D0002D18A246671EAB4654465D46AC4201D180
:1000E00000F039F87E460F3E0FCCB646012633426B
:1000F00000D0FB1AA246AB46334318476C1D0000E4
:100100008C1D0000103A02D378C878C1FAD8520783
:1001100001D330C830C101D504680C6070470000BD
:100120000023002400250026103A01D378C1FBD813
:10013000520700D330C100D50B6070471FB500983F
:10014000019900F082F900F0F7F81FBD10B500200A
:1001500000F039F910BD00F0DFF91146FFF7EEFFAE
:1001600001F0F6F900F011FA03B4FFF7EFFF03BC5A
:1001700000F0CCF90748804707480047FEE7FEE754
:10018000FEE7FEE7FEE7FEE704480549054A064BA1
:1001900070470000810D0000C1000000B001002088
:1001A000B0110020B0090020B0090020F8B50746C2
:1001B00015460E46102000F0D5F8040009D06760FF
:1001C000A660E56000F0CAF80168216004600020C4
:1001D000F8BD0120F8BD002203098B422CD3030A8D
:1001E0008B4211D300239C464EE003460B433CD484
:1001F000002243088B4231D303098B421CD3030AEC
:100200008B4201D394463FE0C3098B4201D3CB011B
:10021000C01A524183098B4201D38B01C01A52414B
:1002200043098B4201D34B01C01A524103098B424F
:1002300001D30B01C01A5241C3088B4201D3CB003A
:10024000C01A524183088B4201D38B00C01A52411D
:1002500043088B4201D34B00C01A5241411A00D2CD
:1002600001465241104670475DE0CA0F00D0494236
:10027000031000D34042534000229C4603098B42A6
:100280002DD3030A8B4212D3FC22890112BA030A2E
:100290008B420CD3890192118B4208D389019211B0
:1002A0008B4204D389013AD0921100E08909C30935
:1002B0008B4201D3CB01C01A524183098B4201D337
:1002C0008B01C01A524143098B4201D34B01C01A22
:1002D000524103098B4201D30B01C01A5241C3089A
:1002E0008B4201D3CB00C01A524183088B4201D309
:1002F0008B00C01A5241D9D243088B4201D34B0024
:10030000C01A5241411A00D20146634652415B1065
:10031000104601D34042002B00D549427047634646
:100320005B1000D3404201B50020C046C04602BD6C
:10033000704770477047000070B5064C7C44064D0E
:100340007D4403E0206800198047241DAC42F9D1A8
:1003500070BD0000481B00004C1B000000487047A7
:100360008801002070B5064600F052F80568304656
:100370000B30C408E400B44201D8002070BD6868A6
:100380002A46002818D00168A14211D30B46214605
:1003900008318B4208D3436801194B6003681B1B6B
:1003A0000B605160046001E041685160001D70BD48
:1003B000024640680028E6D12146284600F030F881
:1003C0000028DCD170BDF8B50646FFF7C7FF0090E6
:1003D000054615E0002E02D0E068B0420FD120683B
:1003E00028600098A168076860688847204600F088
:1003F00060F800980068B84202D00098E8E7254607
:100400002C68002CE6D1F8BD004870475001002050
:100410000048704758010020704770477047704788
:1004200038B504460A4600206946C046C046002842
:1004300005D002462046009900F08DF8012038BD15
:1004400010B5012000F0C3F810BDF8B5C046C04695
:10045000054600200C461020C0460646A819A042BA
:100460000DD9324669460020C046C046070001D17A
:1004700000F0ADF80098A04200D00546C419FFF77F
:10048000C7FFF61D07460560F008C000461928465C
:1004900000F008F8B44204D031463868A21B00F0DE
:1004A0005AF8F8BD0021016041608060704710205B
:1004B000704770B50446051FFFF7AAFF0068002CBF
:1004C0001AD0446801E020466468002C01D0AC4298
:1004D000F9D301680A18AA4204D12A680546891886
:1004E000016000E0456028684119A14205D16168BA
:1004F000696021684018286070BD6C6070BD10B5DF
:10050000002801D000F002F810BD000001491820B9
:10051000ABBEFEE7260002007546FFF775FFAE464C
:10052000050069465346C008C000854618B020B58E
:10053000FFF72AFE60BC00274908B6460026C0C562
:10054000C0C5C0C5C0C5C0C5C0C5C0C5C0C5403D8B
:1005500049008D46704710B50346406801E00346E8
:100560004068002801D08842F9D31868C3188B422C
:1005700006D0CB1CD808C000001D411A521A0146F3
:10058000081D0A60FFF795FF10BD10B50446C04670
:10059000C0462046FFF7E8FD10BD70B505460C4685
:1005A0000A2000E06D1C00F018F8002D06D0287815
:1005B0000028F7D102E0641C00F00FF8002C02D0F4
:1005C00020780028F7D10A2000F007F870BD10B598
:1005D00000F00AF8FFF793FF10BD08B569460870F0
:1005E0000320ABBE08BD704710B5012805D000211F
:1005F00003A0FFF7D2FF012010BD09A1F8E700001A
:1006000053494752544D454D3A204F7574206F66FB
:100610002068656170206D656D6F72790000000063
:100620003A2048656170206D656D6F727920636F47
:10063000727275707465640070B500F03DFB0D4812
:100640007D21C9000068FFF7C6FD411E0A4800254C
:10065000ED43814209D8094C61610321284600F02D
:1006600001FB0020A061072020610021284600F046
:10067000F9FA70BD14000020FFFFFF0000E000E069
:1006800004480169042211430161016901221143F7
:100690000161704700E000E070B504463E48002666
:1006A0000D4684420CD03C484030844208D03A4841
:1006B0008030844204D03848C030844200D0FEE705
:1006C0002868002802D03549884200D9FEE76868CA
:1006D000032806D0002804D0012802D0022800D028
:1006E000FEE7A868012802D0002800D0FEE7E868ED
:1006F000002802D0012800D0FEE7294980208A6A1C
:1007000002438A623FE00120B04001403AD068686D
:10071000032815D0A26A88B28243A2626A68002ABE
:1007200022681BD082432260AA68002AA26817D0E0
:100730000243A260EA68002A626813D0024312E012
:10074000226888B282432260626882436260A26843
:100750008243A260A26A0243A26205E00243E2E78A
:100760008243E6E7824362606868022806D128690E
:100770000128206A0DD08AB29043206220466A6820
:1007800000F010F8761C29680846F040BBD1012023
:1007900070BD8AB21043F0E7000C0040FFFF00007C
:1007A0000002004010B5C36849434C000C19A34334
:1007B00051430B43C36010BD264A10B5904200D090
:1007C000FEE74A68012A02D0002A00D0FEE78A68C4
:1007D000012A02D0002A00D0FEE7CA68012A02D00E
:1007E000002A00D0FEE71C4A0124136B2406234391
:1007F0001363426A04231A4342624B681022012B9E
:10080000436A1ED0934343628B680222012B436AE2
:1008100019D0934343620A785206520E836B9B0AA7
:100820009B0213438363CA6801214902012A426A79
:100830000DD08A434262416A01221143416210464F
:1008400010BD1343DFE7134343620A68E6E70A4338
:10085000F0E70000002401400002004010B5FFF75F
:100860000FFF10BD70B50268032A01D90322026090
:10087000CB06DB0E01229A40002901DB144B1A60E3
:1008800004688807C00EFF23834000290BDB8E0815
:10089000104DB600761935689D43A3071B0E8340A3
:1008A0001D4335600DE00D072D0F083DAE080A4DC4
:1008B000B6007619F5699D43A3071B0E83401D43BF
:1008C000F561002902DB02488038026070BD00003B
:1008D00080E100E000E400E000ED00E010B500235E
:1008E00086B0002A0DD00124012A0CD0022A08D09B
:1008F000032A0BD0052A0DD0062A10D0072A13D0C0
:1009000017E0019304E00394019312E003220192A3
:1009100003930EE0039304930194029309E003937D
:1009200001940294049304E002220393029404933A
:10093000019200916946FFF7AFFE06B010BD0000BE
:100940000548816B8907C90F05D0C16B8907C90F9D
:1009500001D00221C163704700A80140F8B56C4A7C
:10096000906A4007C00F3ED0D06A4007C00FFAD04F
:10097000684F002139707970506B0423C0B27860E1
:10098000D3620123D362644C2370C407634802D04E
:10099000FB780226B5E0D46AE407E40FFBD0546B81
:1009A0005E4D283D6C544C1C3C70D3622E7808225E
:1009B000AE2E15D009DC0324022E30D00B2E33D0FE
:1009C0000F2E11D0102E0ED13BE082240725E12EF0
:1009D0000DD0E22E2FD0E32E30D0F62E03D10DE035
:1009E000FB70262101708EE0FB7002708BE0042208
:1009F000FA70027044708570C17084E00A23FB7045
:100A0000552303705623437032238370C1700171E4
:100A100041718171C17111210172427273E0FC70E8
:100A200054220270417004E0FC70132202700C2208
:100A30004270817067E0FB70047064E0FB700570C9
:100A400061E000230021C1545B1C282BFADB3449F0
:100A5000FA704B79CA791B0712011B0F1A43D5B2E2
:100A60000A798E7894468A7996460A7A0092CB7AE9
:100A70004A7B1B0712011B0F1A43D4B28B7A0A7BE5
:100A8000897B022E11D0264E7F27767836013E4391
:100A9000A1273E4006704570654685707546C57055
:100AA000009D0571222505721AE01A4FBE78761C4A
:100AB000F6B2BE70A227012E0CD0A126067045709A
:100AC000654685707546C570009D0571114E0025FF
:100AD000B57004E0077044708370C27001710772D2
:100AE00044728372C27201730DE0445C556B2D0A2F
:100AF0002D0225435563D46AA407E40FFBD0D662C8
:100B0000491C9942F1DB044900200870F8BD00003F
:100B1000002401400400002000000020D00000203C
:100B20001C00002010B526485521826B120A1202C3
:100B30000A43826301690F22120491430161016932
:100B4000012211430161816991438161816902231D
:100B500099438161816930237024A14319438161E4
:100B600081697F231B0499433F231B04194381613F
:100B70008169082399438161816911438161816998
:100B80000906C90FFBD00F4902220B689B089B0086
:100B900013430B601146C268D208D2000A43C260F8
:100BA000C168072212029143C160C16812029143D9
:100BB000C160C168D2009143C16000F07DF810BDF2
:100BC000000200400010004010B500F019F800F0DD
:100BD00003F800F03FF810BD08480421C162826AA2
:100BE0000A4382620221C162826A0A43826201214F
:100BF000C162826A0A438262704700000024014099
:100C0000F0B589B00120C0020024104F0226012552
:100C10000090039469460196029504943846FFF7C4
:100C20003BFD2803009003946946019602950494C5
:100C30003846FFF731FD48200590069505A908952F
:100C400007940348FFF7B8FD09B0F0BD000C004061
:100C50000024014008B50020009011216846FFF7EC
:100C600001FE08BD8307FF22DB0E9A408907090EAB
:100C70009940002808DB830809489B001B18186866
:100C800090430843186070470007000F0838830836
:100C900004489B001B18D86990430843D8617047EB
:100CA00000E400E000ED00E002480168491C01603A
:100CB000704700001800002070B5284DE868284CE7
:100CC0004007400F030000F0BBFB07240507240A80
:100CD0001F212400606828E000F0BEF825E01F48CE
:100CE0004030406A8003800F06D0012806D00228D9
:100CF00006D003281AD105E01A4816E01A4814E075
:100D00001A4812E01A4810E020680EE00120C003E3
:100D10000BE028690003000F012803D0022803D04C
:100D2000144802E0144800E01448A060E868400558
:100D3000400F030000F084FB081111111105080B8E
:100D40000E11A068400807E0A068800804E0A068D1
:100D5000C00801E0A0680009A06070BD000200406A
:100D60000C00002000093D0040420F0020A10700B8
:100D700090D0030000127A000024F40000366E01C7
:100D800070B52F480022826105214906C160816A41
:100D90008023194381622B49CB680F24A404234389
:100DA000CB604262426A05231B021A434262264A12
:100DB000521EFDD1C2680123DB061A43C260AA227B
:100DC0008263224A012313600C2353600322012310
:100DD0009B075A601E4A1368DD431C0CADB2AC423F
:100DE00000D040235B065B0E43615268D443130C72
:100DF000A4B2A34200D040225206114B520E4033FF
:100E00009A62134A403A126AD443130CA4B2A34222
:100E100000D08022D2B202624A68FF2381331A4393
:100E20004A60C16A10221143C1620A49CB6B0C159A
:100E30002343CB63C16A9143C162FFF73DFF70BD9D
:100E400000020040C00C0040204E000000A80140FD
:100E500040FBFF1F0004004010B51E4C0020A1699C
:100E60008907C90F0ED0002901D01B484068A1692D
:100E70004906490F0B0000F0E3FA08211214161876
:100E80001A1C202120690003000F012803D002282A
:100E900003D01248EBE71248E9E71248E7E74008B9
:100EA0000CE080080AE0C00808E00C2102E000091C
:100EB00004E01821FFF78FF900E04009A169490219
:100EC000490E491C4143A069C008C00700D0490031
:100ED000084610BD000200400C00002000127A00FD
:100EE0000024F40000366E0170B52021204800F087
:100EF0005EFA80211E4800F098FA00211C4800F09C
:100F000094FA1B4800F039FA322000F0D5FA282272
:100F10002021174800F02CFA154D343D08E000243C
:100F2000134800F049FA2855641CE4B2282CF7D382
:100F30000F4800F07FFA0028F1D120210C4800F082
:100F400036FA03210A4800F070FA0021084800F040
:100F50006CFA074800F011FA0021084600F0E4FAA4
:100F60000A2000F09FFA0121002000F0DDFA70BD98
:100F700050000020426989B20A4342617047826989
:100F800089B20A4382617047F8B505464035687DED
:100F900014211D4C4843011989892058FFF7EFFFA0
:100FA000A87D14214843011989892058FFF7E2FFE1
:100FB000687D14214843011989892058FFF7DAFF19
:100FC000124CE068C026B043E06020680821084366
:100FD0002060A87D00F096FA002813D00027E06872
:100FE000B0434030E0602068082188432060687D7D
:100FF0001421054A4843811889891058FFF7BFFF1B
:101000003846F8BD0127EAE7D8160000000C00407A
:1010100070B505464035A87D14210C4C4843011994
:1010200089892058FFF7ABFF687D142148430119D7
:1010300089892058FFF79EFF687D142148430119D4
:1010400089892058FFF79BFF70BD0000D81600006B
:10105000F8B50021064640360091B07D14211C4DA4
:101060004843411989892858FFF784FF194C002704
:10107000707D14214843411989892858FFF77AFF68
:10108000E068C0218843E0602068082108432060B0
:10109000B07D00F037FA0721C91B8840009908434A
:1010A000C0B20090E068C02188434030E060206812
:1010B000082188432060707D1421484341198989A3
:1010C0002858FFF75CFF7F1C082FD1DB0098F8BD84
:1010D000D8160000000C004070B505464035A87DCC
:1010E00014210C4C4843011989892058FFF742FF0D
:1010F000687D14214843011989892058FFF73AFF78
:10110000687D14214843011989892058FFF737FF6A
:1011100070BD0000D8160000F3B581B0019E002418
:10112000114D0F4640360720011B012088403842F0
:1011300001D0012100E00021019800F0A9F8707DA4
:1011400014214843411989892858FFF713FF707DFE
:1011500014214843411989892858FFF710FF641C5E
:10116000082CE0DBFEBD0000D816000070B5054677
:10117000002140350446A974E9742030017441749B
:10118000687D062100F08CFAA87D062100F088FA1F
:101190000121204600F05AF80121204600F078F89D
:1011A00070BD70B504460020608120794006050EB0
:1011B000E088012800D10543204600F08FF8294639
:1011C0002046FFF7A9FF2046FFF7DEFE002804D0E7
:1011D000E088012819D000252BE0204600F05EF8B9
:1011E000022070BD2046FFF733FF02466089E368A6
:1011F000411C61811A54608921898842204602D2AB
:10120000FFF706FF01E0FFF767FF60892189884249
:10121000E8D311E0E068415D2046FFF77DFF2046FE
:10122000FFF7B2FE00280CD06089401C6D1C608165
:10123000EDB22089A842EDD8204600F02FF800201A
:1012400070BD204600F02AF8032070BDF8B50546B1
:1012500040350C46687D00F067F920460B4C30267F
:10126000042700280AD0E068B043E06020683843D3
:101270002060687D00F046F90028FAD0E068B043AD
:101280001030E0602068B8432060F8BD000C0040DA
:1012900010B54030807D00F047F910BD70B50546AF
:1012A0004035A87D14210C4C4843011989892058E8
:1012B000FFF765FE687D142148430119898920588C
:1012C000FFF758FEA87D1421484301198989205849
:1012D000FFF750FE70BD0000D816000070B505463F
:1012E0004035A87D1421084C4843011989892058AC
:1012F000FFF745FE687D142148430119898920586C
:10130000FFF73DFE70BD0000D816000010B5044C7C
:1013100004600446403423756175A27510BD000059
:10132000601E0000034901600022014640314A75F9
:101330008A757047601E000070B50446202A00DDE3
:101340002022A1800120E080254622812035297CB1
:10135000204610300818E060206801682046884761
:10136000687CA17A4018C0B268740021E18070BD29
:1013700010B5C9B2FFF7E0FF10BD10B50446403408
:10138000E17C002901D0012010BD0168096888476F
:101390000021A174E17410BD818052210A5C0146D4
:1013A00032315118C16000210181C180704700B500
:1013B000C9B2FFF7F1FF00BD10B5014620310A7C2C
:1013C0004C7C0023A24203D10B744B74002010BD4F
:1013D0001030641EA24203D1105C0B744B7410BD1C
:1013E000531C0B74105C10BDF0B515460E46074635
:1013F000002405E0315D384600F005F8641CE4B2D5
:10140000AC42F7DBF0BD30B502464032937C202B76
:1014100008D005465C1C3235947459550189491C25
:10142000018130BD0120D07430BD00B5C9B2FFF7D5
:10143000EAFF00BD2030417C007C081AC0B2704732
:1014400030B47446641E2578641CAB4200D21D463D
:10145000635D5B00E31830BC1847000010B5002343
:10146000032202210348FFF751FF034A0349FEF715
:101470009DFE10BDF80000200000000025130000B4
:1014800010B50023032202210348FFF73FFF034A60
:101490000349FEF78BFE10BD500000200000000045
:1014A0002513000003490A6810180A688242FCD319
:1014B0007047000018000020F8B505460F480024CA
:1014C00000680D490090FEF786FE68430C49074608
:1014D00088690B498D69461B002E01DDA41906E0C1
:1014E0007D21C9000098FEF776FE80190419BC42E0
:1014F00001D82846EDE7F8BD40420F001400002057
:1015000000E000E0602808D21421064A4843115840
:1015100080188089C969884301D000207047012064
:1015200070470000D816000060280AD2074A14232A
:101530005843831800291058998903D042690A43F7
:101540004261704782690A4382617047D816000081
:10155000FFF784F9FFF770F8FFF7E4FAFFF734FBC1
:101560000521202000F09CF80521212000F098F8AA
:101570000521012000F094F801210846FFF7D4FF6F
:101580000521002000F08CF801210020FFF7CCFF9E
:1015900001212020FFF7C8FF0A20FFF783FF002169
:1015A0002020FFF7C1FF6420FFF77CFF01212020EE
:1015B000FFF7BAFF0A20FFF775FF00213648FFF753
:1015C000D5FD354C01250C3C257000266670202188
:1015D0003148FFF7ECFE00212F48FFF726FFC0211E
:1015E0002D48FFF722FF022221462B48FFF7FCFE81
:1015F0002948FFF7C2FE0A20FFF754FF25706670E6
:1016000020212548FFF7D3FE02212348FFF70DFFD5
:10161000C0212148FFF709FF022221461E48FFF79B
:10162000E3FE1D48FFF7A9FE0A20FFF73BFF20213C
:101630001948FFF7BCFE04211748FFF7F6FEC0214A
:101640001548FFF7F2FE1448FFF797FE0A20FFF750
:1016500029FF2570667020210F48FFF7A8FE0121A1
:101660000D48FFF7E2FEC0210B48FFF7DEFE022225
:1016700021460948FFF7B8FE0748FFF77EFE0A201B
:10168000FFF710FF054C20780028FCD1FFF72CFC59
:101690006420FFF707FFF6E750000020000000205D
:1016A00070B560280ED208290CD00A4C142242438F
:1016B0001319042907D09D89A0580A4600232946FA
:1016C000FFF70CF970BD1969491CFBD00321FFF726
:1016D000E7FF70BDD8160000000C00400038014044
:1016E00000AC01400100010001000000000C0040BE
:1016F0000038014000AC014002000200010000007F
:10170000000C00400038014000AC01400400030020
:1017100001000000000C00400038014000AC014016
:101720000800040001000000000C004000380140E7
:1017300000AC01401000010001000000000C00405E
:101740000038014000AC0140200001000100000011
:10175000000C00400038014000AC01404000010096
:1017600001000000000C00400038014000AC0140C6
:101770008000020001000000000C00400038014021
:101780000000000000010100FFFFFFFF000C00400F
:10179000003801400000000000020200FFFFFFFFD0
:1017A000000C00400038014000000000000403006D
:1017B000FFFFFFFF000C0040003801400000000068
:1017C00000080400FFFFFFFF000C004000000000C5
:1017D0000000000000100000FFFFFFFF000C0040B1
:1017E000000000000000000000200000FFFFFFFFDD
:1017F000000C00400000000000000000004000005D
:10180000FFFFFFFF000C0040000000000000000090
:1018100000800000FFFFFFFF400C00400038014047
:1018200000AC01400100030001000000400C00403A
:101830000038014000AC014002000400010000003B
:10184000400C004000000000000000000400000008
:10185000FFFFFFFF400C0040000000000000000000
:1018600008000000FFFFFFFF400C004000000000E8
:101870000000000010000000FFFFFFFF400C0040D0
:10188000000000000000000020000000FFFFFFFF3C
:10189000400C00400000000000000000400001007B
:1018A000FFFFFFFF400C00400000000000000000B0
:1018B00080000200FFFFFFFF400C0040000000001E
:1018C0000000000000010300FFFFFFFF400C00408C
:1018D000000000000000000000020400FFFFFFFF06
:1018E000400C004000000000000000000004000068
:1018F000FFFFFFFF400C0040000000000000000060
:1019000000080000FFFFFFFF400C00400000000047
:101910000000000000100000FFFFFFFF400C00402F
:10192000000000000000000000200000FFFFFFFF9B
:10193000400C0040000000000000000000400000DB
:10194000FFFFFFFF400C004000000000000000000F
:1019500000800000FFFFFFFF800C0040000000003F
:1019600000AC01400100000001000000800C0040BC
:101970000000000000AC0140020000000100000077
:10198000800C00400000000000AC0140040000009A
:1019900001000000800C00400000000000AC01408D
:1019A0000800000001000000800C00400000000062
:1019B00000AC01401000000001000000800C00405D
:1019C0000000000000AC0140200000000100000009
:1019D000800C0040000000000000000040000100FA
:1019E000FFFFFFFF800C004000000000000000002F
:1019F00080000200FFFFFFFF800C0040000000009D
:101A00000000000000010300FFFFFFFF800C00400A
:101A1000000000000000000000020400FFFFFFFFC4
:101A2000800C0040000000000000000000040000E6
:101A3000FFFFFFFF800C00400000000000000000DE
:101A400000080000FFFFFFFF800C004000000000C6
:101A50000000000000100000FFFFFFFF800C0040AE
:101A6000000000000000000000200000FFFFFFFF5A
:101A7000800C00400000000000000000004000005A
:101A8000FFFFFFFF800C004000000000000000008E
:101A900000800000FFFFFFFFC00C004000000000BE
:101AA0000000000001000000FFFFFFFFC00C00402D
:101AB000000000000000000002000000FFFFFFFF28
:101AC000C00C004000000000000000000400000006
:101AD000FFFFFFFFC00C00400000000000000000FE
:101AE00008000000FFFFFFFFC00C004000000000E6
:101AF0000000000010000000FFFFFFFFC00C0040CE
:101B0000000000000000000020000000FFFFFFFFB9
:101B1000C00C004000000000000000004000000079
:101B2000FFFFFFFFC00C00400000000000000000AD
:101B300080000000FFFFFFFFC00C0040000000001D
:101B40000000000000010000FFFFFFFFC00C00408C
:101B5000000000000000000000020000FFFFFFFF87
:101B6000C00C004000000000000000000004000065
:101B7000FFFFFFFFC00C004000000000000000005D
:101B800000080000FFFFFFFFC00C00400000000045
:101B90000000000000100000FFFFFFFFC00C00402D
:101BA000000000000000000000200000FFFFFFFF19
:101BB000C00C0040000000000000000000400000D9
:101BC000FFFFFFFFC00C004000000000000000000D
:101BD00000800000FFFFFFFF000000000000000089
:101BE00000000000000000000000000000000000F5
:101BF00000000000000000000000000000000000E5
:101C000000000000000000000000000000000000D4
:101C100000000000000000000000000000000000C4
:101E6000A31100006D110000901E00000000002072
:101E70001C00000004010000AC1E00001C0000203B
:101E80009411000020010000F9F5FFFFD1F5FFFFDC
:101E900000000000000001000000000000800000C1
:0C1EA00000127A0000127A00000000001E
:04000005000000C136
:00000001FF
